:020000040800F2
:1000000088040020DD0100083B120008631100088D
:1000100039120008550500083314000800000000DC
:100020000000000000000000000000003F12000877
:1000300057050008000000003D12000841120008AA
:10004000F7010008F7010008F7010008F7010008B0
:10005000F7010008F7010008F7010008F7010008A0
:10006000F7010008F7010008F7010008F701000890
:10007000F7010008F7010008F7010008F701000880
:10008000F7010008F7010008F7010008F701000870
:10009000F7010008F7010008F7010008F701000860
:1000A000F7010008F7010008F7010008F701000850
:1000B000F7010008F7010008F7010008F701000840
:1000C000F7010008F7010008F7010008F701000830
:1000D000F7010008F7010008F7010008F701000820
:1000E000F7010008F7010008F7010008F701000810
:1000F000F7010008F7010008F7010008F701000800
:10010000F7010008F7010008F7010008F7010008EF
:10011000F7010008F7010008F7010008F7010008DF
:10012000F7010008F7010008F7010008F7010008CF
:10013000F70100080000000000000000F7010008BF
:10014000F7010008F7010008F7010008F7010008AF
:10015000F7010008F7010008F7010008F70100089F
:10016000F7010008F7010008F7010008F70100088F
:10017000F7010008F7010008F7010008000000007F
:1001800000000000F701000800000000000000006F
:10019000F70100080000000000000000F70100085F
:1001A000000000000000000000000000F70100084F
:1001B000F7010008F7010008F7010008F70100083F
:1001C000F7010008DFF810D000F0B2F9004800474E
:1001D00075140008AFF300808804002006488047AB
:1001E00006480047FEE7FEE7FEE7FEE7FEE7FEE71C
:1001F000FEE7FEE7FEE7FEE7E5120008C50100089E
:100200002DE9F05F0546002092469B46884606464B
:10021000814640241BE0284641464746224600F0DE
:10022000E2F853465A46C01A914110D31146184677
:10023000224600F0C9F82D1A67EB01084F46224606
:100240000120002100F0C0F817EB00094E41201EEC
:10025000A4F10104DFDC484631462A464346BDE8A6
:10026000F09FD2B201E000F8012B491EFBD270478B
:100270000022F6E710B513460A4604461946FFF772
:10028000F0FF204610BD2DE9FE4F81EA030404F083
:10029000004421F0004100944FF0000B23F0004394
:1002A00050EA01045ED052EA03045BD0C3F30A545F
:1002B000C1F30A552C44A4F2F3340194A0FB025478
:1002C000C1F3130141F48011C3F3130343F480130A
:1002D00001FB024400FB034E840A970A44EA81545E
:1002E00047EA8357A4FB076802958D0A05FB07853B
:1002F0004FEA932C04FB0C542705029D4FEA065845
:1003000047EA1637B5EB08056EEB070C870E920E21
:1003100047EA811742EA8312A7FB0201B6EB0B0101
:1003200064EB00042B0D43EA0C335E1844EB1C50C5
:10033000DA465146E7FB0201C5F313044FEA0B33DB
:1003400043EA14534FEA0432019C43EA0603A4F142
:100350000C040294009CCDE900B400F09AF803B0BC
:10036000BDE8F08F00200146F9E700F0004230F0D0
:1003700000400AD0C10D01F56071C0F3160042EAD9
:100380000151C208400711437047002001467047E1
:1003900001F0004330B421F0004150EA010206D0E0
:1003A0000A0DA2F56072C1F31301002A02DC30BC11
:1003B00000207047440F44EAC104C100E01830BC7B
:1003C00000EBC25000F01FB8202A04DB203A00FAEC
:1003D00002F1002070479140C2F1200320FA03F39C
:1003E000194390407047202A04DB203A21FA02F09A
:1003F0000021704721FA02F3D040C2F1200291405F
:100400000843194670470029A8BF7047401C49009F
:1004100008BF20F00100704710B4B0FA80FC00FA69
:100420000CF050EA010404BF10BC704749B1CCF194
:10043000200421FA04F411FA0CF118BF0121214320
:100440000843A3EB0C01CB1D4FEA00614FEA1020DB
:1004500042BF002010BC704700EBC350104400297D
:10046000A4BF10BC7047401C490008BF20F0010029
:1004700010BC704710B5141E73F1000408DA401C5C
:1004800041F1000192185B411A4301D120F00100B3
:1004900010BD2DE9F04D92469B4611B1B1FA81F2A3
:1004A00002E0B0FA80F220329046FFF78DFF04465A
:1004B0000F4640EA0A0041EA0B0153465A460843F8
:1004C00013D0114653EA010019D0C8F1400250463A
:1004D000FFF789FF05460E46504659464246FFF74C
:1004E00073FF084305D0012004E020463946BDE8EB
:1004F000F08D0020054346EAE0762C4337430A9806
:100500006305E40AA0EB08000022FD0A44EA475410
:100510000A3002D500200146E9E7010510196941BA
:10052000DDE9084500196941BDE8F04DA2E700008A
:10053000064C074D06E0E06840F0010394E8070030
:1005400098471034AC42F6D3FFF740FE741600080B
:1005500094160008FEE7704772B6FEE770B50446D1
:1005600000F00EF90546601C02D0044800780444EF
:1005700000F006F9401BA042FAD370BD180000201D
:100580002DE9F84FDFF8ACA1002201240AF1040B99
:1005900003254FF00F090BF1040E00BF0B6804FA9E
:1005A00002F63340B3426ED10F7907F00307012FF3
:1005B00001D0022F16D187684FEA420805FA08FCDD
:1005C00027EA0C07D1F80CC00CFA08FC4CEA070C1F
:1005D000C0F808C04768B7430E79C6F300169640C6
:1005E0003E4346600E79F643B6070AD0C6684FEA26
:1005F000420C05FA0CF7BE438F6807FA0CF7374335
:10060000C7600E7906F00306022E10D1D60800EB63
:100610008608D8F8206057074FEAD76C09FA0CF71C
:10062000BE430F6907FA0CF73743C8F82070066815
:100630004FEA420C05FA0CF7BE430F7907F00307A7
:1006400007FA0CF7374307604E6816F4403F6BD04B
:10065000394E376847F480473760366822F0030721
:1006600006F480460096354E07EB060CDCF8086869
:1006700097074FEA177809FA08F7BE43304FB84298
:1006800002D100271FE04FE02E4FB84201D10127D1
:1006900019E02D4FB84201D1022714E02B4FB84288
:1006A00001D103270FE02A4FB84201D104270AE005
:1006B000284FB84201D1052705E0274FB84201D1A4
:1006C000062700E0072707FA08F73743CCF8087831
:1006D000DAF800605746D1F804C09E435FEACC3C8C
:1006E00000D51E433E60DBF800605F46D1F804C0D1
:1006F0009E435FEA8C3C00D51E433E60DEF80060FE
:100700007746D1F804C09E435FEACC2C00D51E4347
:100710003E60084F0C373E68D1F804C09E435FEA44
:100720008C2C00D51E433E60521C102AFFF436AFBD
:10073000BDE8F88F003C01404438024000300140E1
:10074000000002400004024000080240000C024089
:1007500000100240001402400018024000690840E6
:1007600000D001207047426921EA02030A4043EAAF
:100770000241816170470AB1816170470904FBE75A
:100780000148806870470000180000200248816816
:100790000278114481607047180000200B4810B5A2
:1007A000016841F400710160016841F480610160F9
:1007B000016841F480710160032000F063F80020BB
:1007C00000F006F800F024F8002010BD003C0240C4
:1007D00070B50D4D04464FF47A712878B1FBF0F0F6
:1007E0000A490968B1FBF0F000F046FB48B9102C4B
:1007F00007D200222146501E00F024F800206C6031
:1008000070BD012070BD00001800002024000020F1
:100810000B4882B0016841F480410160006800F437
:10082000804000900648001F016841F0805101603F
:10083000006800F080500090072002B000F022B85D
:1008400044380240F0B40E4B1B680C46C3F302233D
:10085000C3F10705042D00D90425191D072901D26C
:10086000002300E0DB1E012606FA05F1491E2140A7
:1008700099409E40761E16403143F0BC00F0DABD30
:100880000CED00E0064900F0070208684FF6FF0390
:10089000184040EA0220034A1043086070470000F5
:1008A0000CED00E00000FA052DE9F8431748016857
:1008B00041F0805101600068154F00F08050012622
:1008C00000903E64FFF75CFF05464FF47A78114CC8
:1008D00005E000BFFFF754FF401B40450DD860689E
:1008E000C003F7D57E64FFF74BFF0546464607E099
:1008F000FFF746FF401BB04202D90320BDE8F88352
:1009000060688003F4D50020F8E70000403802401A
:1009100000000E42007000402DE9F0470E46050031
:1009200065D0DFF81481D8F80000F7B200F00F00AE
:10093000B04207D288F80070D8F8000000F00F002D
:10094000B04254D128683D4C810712D5400703D5E9
:10095000206840F4E05020602878000703D5206824
:1009600040F4604020602068A96820F0F00008434F
:1009700020602878C0072DD03049686808390128E0
:1009800012D0022813D0032811D009688907002942
:100990002DDA216821F0030101432160FFF7F0FE09
:1009A000814641F2883A0EE009688903EFE7096859
:1009B0008901ECE7FFF7E4FEA0EB0901514502D9FC
:1009C0000320BDE8F0872068696800F00C00B0EBF8
:1009D000810FEFD1D8F80010404601F00F01B1426D
:1009E00007D90770006800F00F00B04201D0012065
:1009F000E7E72878400705D52068E96820F4E0504B
:100A0000084320602878000706D52068296920F46B
:100A1000604040EAC100206000F018F82168084AF0
:100A2000C1F30311515CC8400649086006480068DC
:100A3000FFF7CEFE0020C4E7003C02400838024029
:100A400064160008240000201C000020224810B575
:100A5000006810F00C02214815D04110042A11D072
:100A60001D4C241F082A0FD00C2A0CD122682368A1
:100A700002F03F025B0221D52068C0F38810A0FB82
:100A8000010120E0084610BD2268236802F03F0201
:100A90005B0205D52068C0F38810A0FB010104E0CB
:100AA0002168C1F38811A1FB00010023FFF7A8FB17
:100AB0002168C1F30141491C49000AE02168C1F3E2
:100AC0008811A1FB00010023FFF79AFB2168C1F305
:100AD0000271B0FBF1F010BD083802400024F400B0
:100AE0002DE9F84F04007DD0DFF878B32078ABF122
:100AF0000407C007A7F1040550D0DBF800105846E2
:100B0000C1F3810101290FD00168C1F381010229DC
:100B100002D13968490207D40068C0F38100032874
:100B200009D13868400206D52868800336D5606848
:100B30000028D8D032E06068B0F5803F10D0B0F522
:100B4000A02F286810D020F480302860286820F476
:100B5000802028606068A0B1FFF712FE06460CE016
:100B6000286840F48030F4E740F480202860F7E7FC
:100B7000FFF706FE801B642876D828688003F7D527
:100B80000CE0FFF7FDFD064605E000BFFFF7F8FDAE
:100B9000801B6428F0D828688003F7D42078DFF819
:100BA000C89280074FF0000A44D5DBF80010584681
:100BB00011F00C0F0FD00168C1F38101022902D19D
:100BC0003968490207D50068C0F3810003280AD1BB
:100BD0003868400207D42868800715D5E0680128E6
:100BE00000D111E03AE1E068B0B10120C9F800009D
:100BF000FFF7C6FD064604E0FFF7C2FD801B022892
:100C0000BAD828688007F7D52868216920F0F8004D
:100C100040EAC10028600DE0C9F800A0FFF7B0FD70
:100C2000064604E0FFF7ACFD801B02281CD82868AC
:100C30008007F7D42078000727D5DFF828828B4873
:100C4000616908F16C0881B101210160FFF798FD2D
:100C5000064604E0FFF794FD801B022804D8D8F86C
:100C600000008007F6D510E089E0C0F800A0FFF78B
:100C700087FD064605E000BFFFF782FD801B0228C6
:100C80007DD8D8F800008007F6D42078400769D5D1
:100C900074484FF0000838300068C0000BD4714829
:100CA0003830016841F08051016000684FF0010860
:100CB00000F0805000906E4E3068C00511D430684E
:100CC00040F480703060FFF75BFD009006E000BFED
:100CD000FFF756FD0099401A022850D83068C00529
:100CE000F6D5604EA068683601280FD00528306818
:100CF00010D020F001003060306820F00400306037
:100D0000A068B8B1FFF73CFD00900FE0306840F0FC
:100D10000100F4E740F004003060F7E7FFF730FD32
:100D20000099411A41F28830814264D830688007C6
:100D3000F4D50EE0FFF724FD009007E0FFF720FD5B
:100D40000099411A41F28830814254D830688007B6
:100D5000F4D4B8F1000F05D042483830016821F0D2
:100D600080510160A069A8B3DBF80010C1F38101D4
:100D7000022947D00228C9F860A005D000E03AE077
:100D8000FFF7FEFC044639E0FFF7FAFC064604E0F4
:100D9000FFF7F6FC801B02282DD828688001F7D4C5
:100DA000F4E907010843E168324A490802EB0141CE
:100DB000A26841EA82110843217C40EA0160217D5A
:100DC00040EA017038600120C9F86000FFF7D8FCE4
:100DD000044606E044E000BFFFF7D2FC001B0228F7
:100DE00009D828688001F7D53AE000BFFFF7C8FCB2
:100DF000001B022802D90320BDE8F88F2868800173
:100E0000F4D42DE00128F7D03868E26900F48001BD
:100E1000914223D1226A00F03F0191421ED147F650
:100E2000C071626A0140B1EB821F17D1A26A4FF014
:100E3000FF3300F4403103EB5202B1EB024F0DD10E
:100E400094F82C2000F07061B1EB026F06D194F899
:100E5000301000F0E040B0EB017F01D00120CBE783
:100E60000020C9E70838024000004742800E474290
:100E7000007000400000FFFF10B5401EB0F1807F01
:100E800001D3012010BD4FF0E02460610F216017F5
:100E900000F0D0FA0020A06107202061002010BDE2
:100EA00070B590F83C20012A32D0012480F83C40F3
:100EB000022280F83D2003685A689D6822F070067F
:100EC0000A6832435A60134B02689A4214D0B2F156
:100ED000804F11D0104B9A420ED0104B9A420BD03B
:100EE0000F4B9A4208D00F4B9A4205D00E4B9A42B4
:100EF00002D00E4B9A4204D1496825F08003194371
:100F0000916080F83D40002180F83C10084670BD9B
:100F1000022070BD000001400004004000080040B5
:100F2000000C004000040140004001400018004057
:100F300010B5040003D094F83D0010B107E0012083
:100F400010BD002084F83C00204600F01FF802206D
:100F500084F83D00211D206800F0D2F9012084F8BA
:100F6000460084F83E0084F83F0084F8400084F88E
:100F7000410084F8420084F8430084F8440084F877
:100F8000450084F83D00002010BD000008B5006851
:100F90000649884208D10648016841F00401016011
:100FA000006800F00400009008BD00000008004048
:100FB0004038024070B5044690F83C0000250128F6
:100FC00017D0012684F83C60022084F83D00206898
:100FD000826822F0770222F47F42826008685028FB
:100FE00038D00DDC20284FD005DC90B3102811D16B
:100FF0004AE0022070BD302846D040280AD13BE0AC
:1010000060282FD070280DD0B0F5805F03D0B0F5E8
:10101000005F12D0012584F83D60002084F83C0078
:10102000284670BDCB68D1E90121206800F0CCF9D9
:101030002068816841F0770109E0CB68D1E901219E
:10104000206800F0C1F92068816841F48041816026
:10105000E1E719E0CA684968206800F0C7F9502143
:10106000206806E0CA684968206800F0D0F960216D
:10107000206800F0B3F9CEE7CA684968206800F03C
:10108000B5F940212068F4E7226801461046F0E7F0
:101090002DE9F04385B01FFA82F84FF001090026D0
:1010A000CDF80080CDE901960C4605461746694605
:1010B0000396FFF765FA380C8DE841022046694631
:1010C0000396FFF75DFA284601224146FFF753FBDE
:1010D0003220FFF743FA204600224146FFF74BFB40
:1010E00005B0BDE8F0832DE9F05F0446DDF82890F7
:1010F0000E4690469B4600254FEA124A304651461E
:10110000FFF72CFB0128F9D000271FFA88F82046AA
:1011100001224146FFF72FFB6D0030465146FFF795
:101120001DFB00B16D1C204600224146FFF723FB4A
:101130007F1CFFB2182FEAD300260AE020460122C6
:101140004146FFF718FB204600224146FFF713FBFC
:10115000761CB145F2DC85F40000A0EB0B00BDE885
:10116000F09FFEE770B586B014216846FFF780F85F
:1011700016480024016841F080010160016801F017
:1011800080010591016841F0010101600068104E85
:1011900000F0010040F2A315059022462946304692
:1011A000FFF7E9FA01200095CDE9010469463046D0
:1011B0000394FFF7E5F97015CDE900046946304660
:1011C0000294FFF7DDF906B070BD00003038024030
:1011D0000000024010B586B0002416480094019427
:1011E000029403940494124905940160B321C0E968
:1011F0000114C46004618461FFF79AFE08B1FFF72F
:10120000ABF94FF48050009069460A48FFF7D2FED0
:1012100008B1FFF7A1F9049404A906480594FFF763
:101220003FFE002801D0FFF797F906B010BD00007F
:10123000000800403C000020FEE7FEE770477047D2
:10124000FFF7A4BA30B593B034216846FFF710F821
:1012500014210DA8FFF70CF820480025016841F083
:1012600080510160006800F0805012901C480168B5
:1012700041F4404101600068022400F440401290B3
:1012800001200090000401908001CDE90640042077
:101290000890B420CDE909040B9468460C94FFF73C
:1012A0001FFC08B172B6FEE7FFF7FEFA08B172B68E
:1012B000FEE70DA90F2081E831004FF4A0501090F7
:1012C0004FF48050119005210DA8FFF725FB002851
:1012D00001D072B6FEE713B030BD000040380240C6
:1012E000007000400548016841F470010160034945
:1012F0004FF00060803908607047000088ED00E022
:10130000F0B50268254C264D264E274F274B4FF04F
:10131000804CA04209D0604507D0A84205D0B04219
:1013200003D0B84201D0984204D122F0700E4A682E
:1013300042EA0E02A0421BD0604519D0A84217D045
:10134000B04215D0B84213D0984211D0184DA842DF
:101350000ED0184DA8420BD0174DA84208D0174DFB
:10136000A84205D0164DA84202D0164DA84203D17E
:1013700022F44075CA682A434D6922F080022A434C
:1013800002608A68C2620A688262A04201D0984202
:1013900001D10969016301214161F0BD00000140F3
:1013A0000004004000080040000C00400004014020
:1013B0000040014000440140004801400018004046
:1013C000001C00400020004010B5846842EA03225F
:1013D00024F47F440A432243826010BD826822F0D5
:1013E00070020A4342F007018160704710B5036A3A
:1013F000046A24F001040462846924F0F00444EADD
:10140000021423F00A020A438461026210BD10B57F
:10141000036A23F0100303628369046A23F47043B0
:1014200043EA023224F0A00343EA0111826101621F
:1014300010BDFEE70907090E002804DB00F1E020DB
:1014400080F80014704700F00F0000F1E02080F8F1
:10145000141D704702E008C8121F08C1002AFAD103
:1014600070477047002001E001C1121F002AFBD124
:101470007047000008B5FFF791F9FFF773FEFFF71B
:10148000E1FE5E4D5E4E80216E60202229616A8100
:101490002E6029814FF04863EB6000913046014691
:1014A000AA68FFF7F5FD574C00272869009095E8DA
:1014B0000F00FFF718FE00EE100AD4ED020A6420B8
:1014C000B8EEC00A30EE200A84ED020AFFF746F8B3
:1014D0007F1C192FE9DBD4ED020AB3EE091A80EE66
:1014E000810A84ED030AD4ED040A80EE201A84ED0B
:1014F000001A9FED450A84ED010AFFF76BFEA8462E
:10150000DFF808914FF47A7B4FF4807A4FF400773C
:101510004FEA0605D8F8101008F10400009190E891
:101520000E00D8F80000FFF7DEFD00EE100AD4ED43
:10153000000A5846B8EEC00A20EE200A84ED010ADF
:10154000FFF70CF86068484501DB002200E001224B
:1015500002212846FFF70FF9002256465146284639
:10156000FFF709F9032000F05DF801223146284613
:10157000FFF701F90A2000F055F80022314628460D
:10158000FFF7F9F839462846FFF7E8F80028F9D0C0
:10159000002603E00220761C00F044F83946284675
:1015A000FFF7DCF80128F5D000EE106AB8EE400A2B
:1015B00010EE100AFEF7D9FE9FED151B53EC112B10
:1015C000FEF761FE9FED141B53EC112BFEF75BFE43
:1015D000FEF7DEFE12496061884208DA01212846E2
:1015E000FFF7C1F84FF4FA70FEF7B8FF92E7002258
:1015F00001212846FFF7BFF88CE7000028000020F3
:10160000000002400000002000000000BF87AA5830
:10161000666666666666064000000000C58F913FFC
:10162000CDCCBA42022800D202200D49401E0860EB
:101630000B49012018390860081F016821F00101D9
:10164000016007492C390A6842F001020A6001680A
:10165000C907FCD0016821F001010160704700005A
:101660002C080040000000000000000001020304FC
:101670000607080994160008000000202800000052
:1016800054140008BC160008280000206004000064
:101690006414000829DC8F420000000000000000F4
:1016A000000000000000C841000000000100000030
:0C16B00010000000000000000024F40006
:04000005080001C529
:00000001FF
